:020000040800F2
:10000000E0210020B9020008D75000082749000865
:10001000D550000891060008237500080000000074
:100020000000000000000000000000001D54000857
:10003000DB070008000000001B54000829540008DA
:10004000D3020008D3020008D3020008D30200083C
:10005000D3020008D3020008D3020008D30200082C
:10006000D3020008D3020008D3020008D30200081C
:10007000090700081507000821070008D302000837
:10008000D302000800000000CD040008D3020008DD
:10009000B5740008D3020008D3020008D302000898
:1000A000D3020008A9540008D3020008D3020008B4
:1000B000D3020008B5540008D3020008D302000898
:1000C000D3020008D3020008D3020008D3020008BC
:1000D000D3020008D3020008D3020008715E0008B2
:1000E000D3020008D3020008D3020008D30200089C
:1000F000D3020008D3020008D30200080000000069
:1001000000000000D302000800000000D302000835
:10011000D302000800000000D3020008D302000848
:100120002D070008D3020008D3020008D3020008FC
:10013000D30200080000000000000000D302000805
:10014000D3020008D30200080000000000000000F5
:10015000000000000000000000000000000000009F
:10016000000000000000000000000000D3020008B2
:10017000D3020008000000000000000000000000A2
:1001800000000000D3020008000000000000000092
:10019000000000000000000000000000000000005F
:1001A0000000000000000000D3020008D302000895
:1001B000D3020008D3020008D302000800000000A8
:1001C00000000000D3020008000000000000000052
:1001D000D3020008D302000800F002F800F05CF837
:1001E0000AA090E8000C82448344AAF10107DA4592
:1001F00001D100F051F8AFF2090EBAE80F0013F088
:10020000010F18BFFB1A43F001031847B0A000000C
:10021000D0A000000A444FF0000C10F8013B13F08E
:10022000070408BF10F8014B1D1108BF10F8015B4F
:10023000641E05D010F8016B641E01F8016BF9D142
:1002400013F0080F1EBF10F8014BAD1C0C1B09D199
:100250006D1E58BF01F801CBFAD505E014F8016B0B
:1002600001F8016B6D1EF9D59142D6D3704700009D
:100270000023002400250026103A28BF78C1FBD8AF
:10028000520728BF30C148BF0B6070471FB509F047
:10029000DFFF1FBD10B510BD00F0E2F81146FFF7FB
:1002A000F5FF09F07DFA00F000F903B4FFF7F2FF63
:1002B00003BC00F003F900000948804709480047E3
:1002C000FEE7FEE7FEE7FEE7FEE7FEE7FEE7FEE706
:1002D000FEE7FEE704480549054A064B7047000063
:1002E00099540008D9010008E01B0020E0210020FB
:1002F000E01D0020E01D002053EA020C00F06980A0
:100300002DE9F04B4FF00006002B1FBFB3FA83F529
:1003100003FA05F424FA05F65E4012BF1643B2FA5A
:1003200082F502FA05F4C5F120051EBF22FA05FC8C
:1003300044EA0C04203556EA044C4FEA144418BF32
:10034000641C4FF000084FF00009904271EB030C61
:1003500039D3002919BFB1FA81F701FA07F6B0FACB
:1003600080F700FA07F6C7F120071EBF20FA07FC46
:1003700046EA0C062037B6FBF4FCA7EB0507103F56
:1003800007F01F0BCBF120060CFA0BFB2CFA06F63C
:1003900044BFB3460026202FA4BF5E464FF0000B9B
:1003A0005BEA060C08BF4FF0010B19EB0B09ABFB26
:1003B000027C48EB0608C01B06FB02CC0BFB03CCFF
:1003C00071EB0C01C1E70B46024641464846BDE8C9
:1003D000F08B13B54FF000004FF00001AFF3008039
:1003E000BDE81C4070474FF0000200B5134694462C
:1003F0009646203922BFA0E80C50A0E80C50B1F17D
:100400002001BFF4F7AF090728BFA0E80C5048BF90
:100410000CC05DF804EB890028BF40F8042B08BF2E
:10042000704748BF20F8022B11F0804F18BF00F82A
:10043000012B704770477047704710B500F008F8FF
:10044000006810BD10B5044600F002F8046010BD4D
:10045000004870477C1B0020004870477C1B002030
:100460007546FFF7F9FFAE4605006946534620F092
:100470000700854618B020B5FFF72CFFBDE82040E7
:100480004FF000064FF000074FF000084FF0000B50
:1004900021F00701AC46ACE8C009ACE8C009ACE803
:1004A000C009ACE8C0098D46704710B50446AFF3EB
:1004B00000802046BDE81040FFF7F7BE0149182034
:1004C000ABBEFEE7260002007047000010B50448EE
:1004D00001F006F8BDE81040024801F001B8000044
:1004E000A00100200C02002010B5846AE16D11F01B
:1004F000500F06D0E16DC90625D5204600F0EEFF6D
:1005000010BDE06D40F40070E065206801680907E7
:1005100016D504F041FA78B12068C068800400283C
:100520000ADBE06D20F48070E065E06DC00403D468
:10053000E06D40F00100E065204600F0CDFF10BD09
:10054000C0688007EBE7616D496BBDE81040084764
:1005500010B5806AC16D41F04001C165016E41F086
:100560000401016600F0BAFF10BD10B5806A00F00A
:10057000B4FF10BD70B50446006881688268C1F39D
:10058000400112F0010F28D039BB816801F00D0144
:10059000012914D18168124A1140891C81602168A7
:1005A0000320086001F002FF054612E001F0FEFEA4
:1005B000401B02280DD920688068C00709D0E06D73
:1005C00040F01000E065206E40F001002066012040
:1005D00070BD20688068C007E8D1002070BD0000B1
:1005E000C0FFFF7FF8B504460020009020688168B6
:1005F00011F0010F41D18168214A11422ED1816849
:10060000D5432940491C81601E48806800F0E07095
:1006100000020DD51C481D490068B0FBF1F0401CDC
:1006200000EB4000800000E0401E00900028FBD15D
:1006300001F0BCFE06461BE0816811F0010F03D1FA
:1006400081682940491C816001F0B0FE801B0228AE
:100650000ED920680068C043C00709D0E06D40F0A3
:100660001000E065206E40F0010020660120F8BD1A
:1006700020680168C943C907DED10020F8BD000029
:100680003F0000800003005018000020400D0300D0
:10069000FEE70020704700207047000010B50022E0
:1006A0000449054805F06DFD0449034805F060FD67
:1006B000002010BD7C170020AC0E00207C13002011
:1006C00010B50146034805F053FD024805F018FD3A
:1006D000002010BDAC0E002000207047094A10B564
:1006E000D2F8BC22D2F814220AB1012010BD0A4669
:1006F0000146044805F045FDBDE81040014805F0FD
:10070000AABD0000AC0E0020014801F0CEBA0000E6
:10071000F0050020014801F0C8BA0000D80200200E
:10072000014801F0C2BA000078020020014801F03F
:10073000BCBA0000900500200D4902688A4201D22F
:100740000C4901E00B492031D2B21423083AB2FB24
:10075000F3F2436C02F01F0223F003031944816497
:1007600004498031C1640121914001657047000056
:1007700008040240000802400179074A02EB8102A6
:100780004265054A4432491E826501F01F0201217B
:100790009140C16570470000FC08024030B5D0E9C7
:1007A00013456560446D14B1D0E91645656090F855
:1007B000444004F01F050124AC40056C6C600468E3
:1007C00063608368102B036803D099600068C2607F
:1007D00030BD9A600068C16030BD704772B6FEE7F8
:1007E000F8B500260446009690F858000D460128FA
:1007F0000BD0012084F858002046FFF7BBFE010013
:10080000E06D04D040F010002AE00220F8BD20F492
:10081000885040F00200E06520688268134B1A405F
:1008200005F080431A4342F000428260104A20687B
:100830000EE0009B5B1C0093934209D3E06D20F017
:10084000020040F01000E06584F858600120F8BD17
:100850008368DB0FEDD1E06D20F0020040F0010075
:10086000E06584F858600846F8BD0000C0FFFF3F0F
:1008700002DE0400704700002DE9F84F4FF0000839
:100880000446CDF800800D4694F85820DFF8EC932C
:10089000616947464046012A0AD00126F84A84F891
:1008A000586041B1296A012905D0A36EEBB129E056
:1008B0000220BDE8F88F6868092838D1A96A4FF48A
:1008C000785041B12B6801F07C0100EA53400843A5
:1008D000E96A084302E0296800EA51402168CB6CCC
:1008E00013400343CB64606621E0C4E91971A96A2F
:1008F000286A31B101F07C01401E0843E96A0843CF
:1009000000E0401E29682B79C1F3846103F01F03C6
:1009100099400143A06E401EA066636E43EA010346
:10092000636604D12068C16C11401943C16420681A
:1009300004F026F858B995F8250098B12068C168E8
:1009400095F8262021F4401141EA4251C160206807
:1009500004F01EF88246206804F012F85AEA0000FB
:100960000DD0FBE095F8260095F82410400540EAEC
:1009700001512068C26822F440121143E6E7A86AD8
:1009800030B1E86A20B195F8250001285ED003E077
:1009900095F82500012804D02068C16821F0007175
:1009A00003E02068C16841F00071C16095F8300033
:1009B000012852D02068016921F002010161AA6872
:1009C00029682068B2F1004F38D003F0FCFF20689E
:1009D000416921F00041416120686969C268C2F340
:1009E000C102520091402A69042A44D000EB8200DF
:1009F0002B68026EDFF88CC203F0F84302EA0C02A7
:100A00000B431A4342F00041016620682A69A96934
:100A100000EB8200026E22F080720A430266297F98
:100A200022682869012923D05FF0000102EB8000D1
:100A3000026E22F000720A4302668FE0002203F089
:100A4000C2FF2068416941F00041C4E7E06D40F019
:100A50002000E0654FF00108A8E7D5E90D1001433B
:100A60002068026922F4FF7242F002021143A5E7F6
:100A70004FF00071DAE7002103F078FF40032068AF
:100A80004FF0000172D003F071FF90FAA0F0B0FABD
:100A900080F1286842036ED090FAA0F0B0FA80F09E
:100AA000814204D100221146206803F0A3FF0121F6
:100AB000206803F05BFF400320684FF001015DD028
:100AC00003F054FF90FAA0F0B0FA80F128684203D6
:100AD00059D090FAA0F0B0FA80F0814204D10022FF
:100AE0000121206803F086FF0221206803F03EFF09
:100AF000400320684FF0020148D003F037FF90FA1E
:100B0000A0F0B0FA80F12868420344D090FAA0F037
:100B1000B0FA80F0814204D100220221206803F063
:100B200069FF0321206803F021FF400320684FF094
:100B3000030133D003F01AFF90FAA0F0B0FA80F16D
:100B4000286842032FD090FAA0F0B0FA80F08142DA
:100B500004D100220321206803F04CFF2068816843
:100B600011F0010F22D0B6E000E004E003F0FEFE39
:100B7000C0F384618DE7C0F3846091E703F0F6FE73
:100B8000C0F38461A2E7C0F38460A6E703F0EEFE41
:100B9000C0F38461B7E7C0F38460BBE703F0E6FE0F
:100BA000C0F38461CCE7C0F38460D0E72A7B296876
:100BB00050F8B03FC1F3120C23EA0C0302F0180CFA
:100BC000314A22FA0CF20A4013430360E9684945AE
:100BD0007ED1286841031CD090FAA0F1B1FA81F1CE
:100BE000491C01F01F0109294FEA403132D8002980
:100BF00012D000BF90FAA0F1B1FA81F101F1010128
:100C000001F01F0106FA01F609D100BFC0F38461AB
:100C100009E0C0F38461E3E7C0F38461EEE790FA92
:100C2000A0F1B1FA81F101F1010101F01F0146EAE1
:100C3000816102D1C0F3846003E090FAA0F0B0FAC1
:100C400080F000F1010000F01F0000EB400041EADD
:100C500000513AE000290ED090FAA0F1B1FA81F1EA
:100C600001F1010101F01F0106FA01F60ED100BFEA
:100C7000C0F384610EE0C0F38461F1E700007F40BF
:100C80000040100400F0FF03FFFF070090FAA0F1FE
:100C9000B1FA81F101F1010101F01F0146EA816120
:100CA00002D1C0F3846003E090FAA0F0B0FA80F0C3
:100CB00000F1010000F01F002B4A00EB400002EBA6
:100CC000005041EA000141F00071AA68206800E08C
:100CD00001E003F078FE25482A68024240D024480B
:100CE0008168244B01F0E0719A4202D0224B9A4273
:100CF0001BD10B0219D42268B2F1A04F30D1826807
:100D000041F4000122F0E0720A4382601B481C4952
:100D10000068B0FBF1F0801C00EB4000800000E0B8
:100D2000401E00900028FBD11AE0164D164BAA4237
:100D300007D1CD0105D422689A4211D041F08071CB
:100D400009E0124DAA420BD14A0209D422689A4204
:100D500006D041F48001826822F0E0720A4382608A
:100D600084F858704046A4E5000020FE000008808A
:100D700000030050000021C31000C09018000020A4
:100D8000400D0300000052C700010050000084CB5A
:100D900000684FF0A041884211D151F8800F496896
:100DA00080B200EE100A064889B2B8EE400A80ED23
:100DB000530A00EE101AB8EE400A80ED540A70474C
:100DC00050060020704700002DE9F04104463548E8
:100DD000806800F01F05206803F0D2FD08BB216881
:100DE000C868C96C00F0004011F4C07F00D190B118
:100DF00094F85800012814D0012084F858002046A7
:100E0000FFF7F0FB02004FF000030CD084F85830DD
:100E10001046BDE8F081E06D40F02000E065012063
:100E2000F7E70220F5E7E06DC00504D5206E20F05D
:100E30000800206600E02366E06D42F2010188436D
:100E400040F48050E065184F21684FF0A046B94249
:100E500001D1304600E00846884200D01DB9E06D5F
:100E600020F48010E0656020086084F85830206825
:100E7000B84200D00646864209D045B1062D06D0BC
:100E8000072D04D0E06D40F48010E065C0E7C16834
:100E900011F0007FBCD18168044B194041F008017A
:100EA0008160B5E70003005000010050C0FFFF7FE4
:100EB0002DE9F04104464548806800F01F05206890
:100EC00003F05EFD08BB2168C868C96C00F00040F3
:100ED00011F4C07F00D190B194F85800012814D0CB
:100EE000012084F858002046FFF77CFB01004FF0FA
:100EF00000020CD084F858200846BDE8F081E06D6F
:100F000040F02000E0650120F7E70220F5E7E06D02
:100F1000C00504D5206E20F00800206600E022669F
:100F2000E06D42F20103984340F48050E065284BA5
:100F300020684FF0A046984201D1374600E00746AE
:100F4000874200D01DB9E76D27F48017E765602759
:100F5000076084F858202068C268920203D542686E
:100F600042F480624260A06908282068426807D085
:100F700022F0400242602068426842F0200206E00F
:100F800022F0200242602068426842F04002426043
:100F90002068984201D1324600E00246824209D0E0
:100FA00045B1062D06D0072D04D0E06D40F4801029
:100FB000E065A1E7C26812F0007F9DD18268054B11
:100FC0001A4042F00802826096E7000000030050D9
:100FD00000010050C0FFFF7F704770472DE9F047C8
:100FE000044690F858009CB00E464FF000090128C6
:100FF00015D0012084F85800002517951895206811
:101000004FF0A04840450ED1284F0097384603F0D6
:10101000BFFC8246206803F0BBFC60B10EE00220FA
:101020001CB0BDE8F087E06D40F02000E06584F87A
:1010300058500120F4E7BAF1000F09D0E06D40F0FC
:101040002000E0654FF0010984F858504846E7E772
:101050001748326840F61F71002A826822F4604205
:1010600016D094F8383042EA433273681A438260EB
:10107000D8F80820BB6802F0010203F001031A430C
:10108000E2D1B36832681A4383688B431A430BE09A
:101090008260D8F80820BB6802F0010203F0010367
:1010A0001A43D1D182688A438260CDE700010050A3
:1010B000000300502DE9F84F00270446009790F8F0
:1010C0005800DFF8E0930D46B846012811D00126FC
:1010D00084F85860206803F057FC60B1E06D40F080
:1010E0002000E0655FF0010784F858803846BDE8CD
:1010F000F88F0220FBE7D5E900210C23206803EAE2
:1011000091131844036B01F01F014FF01F0C0CFAF0
:1011100001FCC2F3846223EA0C038A401343036395
:10112000206803F031FC8246206803F025FC5AEA6F
:1011300000003CD1AA6829682068B2F1004F37D07E
:1011400003F032FC2068416921F0004141612068D0
:101150006969C268C2F3C102520091402A69042A37
:1011600031D000EB82002B68026EDFF83CC303F045
:10117000F84302EA0C020B431A4342F000410166B5
:1011800020682A69A96900EB8200026E22F0807251
:101190000A430266297F22682869012910D00021AC
:1011A00002EB8000026E22F000720A4302667DE0CC
:1011B000002203F0F9FB2068416941F00041C5E7D6
:1011C0004FF00071ECE7002103F0CAFB40032068F8
:1011D0004FF0000172D003F0C3FB90FAA0F0B0FA18
:1011E00080F1286842036ED090FAA0F0B0FA80F047
:1011F000814204D100221146206803F0F3FB012153
:10120000206803F0ADFB400320684FF001015DD082
:1012100003F0A6FB90FAA0F0B0FA80F12868420330
:1012200059D090FAA0F0B0FA80F0814204D10022A7
:101230000121206803F0D6FB0221206803F090FB17
:10124000400320684FF0020148D003F089FB90FA78
:10125000A0F0B0FA80F12868420344D090FAA0F0E0
:10126000B0FA80F0814204D100220221206803F00C
:10127000B9FB0321206803F073FB400320684FF0A3
:10128000030133D003F06CFB90FAA0F0B0FA80F1C8
:10129000286842032FD090FAA0F0B0FA80F0814283
:1012A00004D100220321206803F09CFB20688168A0
:1012B00011F0010F22D0ACE000E004E003F050FB9D
:1012C000C0F384618DE7C0F3846091E703F048FBCD
:1012D000C0F38461A2E7C0F38460A6E703F040FB9B
:1012E000C0F38461B7E7C0F38460BBE703F038FB69
:1012F000C0F38461CCE7C0F38460D0E72A7B29681F
:1013000050F8B03FC1F3120C23EA0C0302F0180CA2
:10131000664A22FA0CF20A4013430360E968494521
:1013200077D1286841031CD090FAA0F1B1FA81F17D
:10133000491C01F01F0109294FEA403132D8002928
:1013400012D000BF90FAA0F1B1FA81F101F10101D0
:1013500001F01F0106FA01F609D100BFC0F3846154
:1013600009E0C0F38461E3E7C0F38461EEE790FA3B
:10137000A0F1B1FA81F101F1010101F01F0146EA8A
:10138000816102D1C0F3846003E090FAA0F0B0FA6A
:1013900080F000F1010000F01F0000EB400041EA86
:1013A000005132E000290ED090FAA0F1B1FA81F19B
:1013B00001F1010101F01F0106FA01F606D100BF9B
:1013C000C0F3846106E0C0F38461F1E790FAA0F114
:1013D000B1FA81F101F1010101F01F0146EA8161D9
:1013E00002D1C0F3846003E090FAA0F0B0FA80F07C
:1013F00000F1010000F01F002D4A00EB400002EB5D
:10140000005041EA000141F00071AA68206803F031
:10141000CBFA28482A6802423FF466AE2648816823
:10142000264B01F0E0719A4202D0254B9A421CD122
:101430000B021AD42268B2F1A04F7FF455AE826835
:1014400041F4000122F0E0720A4382601D481E4907
:101450000068B0FBF1F0401C00EB4000800000E0B1
:10146000401E00900028FBD13EE6184D184BAA42C2
:1014700007D1CD0105D422689A42F5D041F08071A0
:1014800009E0144DAA42EFD14A02EDD422689A42F3
:10149000EAD041F48001826822F0E0720A4382605F
:1014A00022E6000000007F4000F0FF03FFFF07007E
:1014B000000020FE0000088000030050000021C34F
:1014C0001000C09018000020400D0300000052C71B
:1014D00000010050000084CB704770477047000047
:1014E0002DE9F05F0446006806684568DFF854B2ED
:1014F000DBF8080000F01F07B0070ED5A8070CD5D1
:10150000E06DC00603D4E06D40F40060E065204665
:10151000FFF7B0F9216802200860DFF82CA27007FD
:101520004FF0A04801D5680703D4300737D5280706
:1015300035D5E06DC00603D4E06D40F40070E06581
:10154000206803F029FA20B32068504501D14246B3
:1015500000E00246824208D03FB1052F05D0092F96
:1015600003D0504503D1414602E0C16801E0014685
:10157000C96889040DD4016809070AD503F004FA83
:1015800058B3E06D40F01000E065206E40F00100BF
:1015900020662046FFF7A0FF21680C200860B006F7
:1015A00001D5A80603D4700658D5680656D5E06D57
:1015B000C00603D4E06D40F40050E0652068C16CC3
:1015C00011F4C07F1AD00021894603F0E5F90246E4
:1015D0002068504514D1434613E02068416821F04B
:1015E0000C014160E06D20F48070E065E06DC004A6
:1015F000CFD4E06D40F00100E065CAE70121E3E7E8
:101600000346834208D03FB1062F05D0072F03D0F1
:10161000504503D1414602E0C16801E00146C96876
:10162000B9F1000F14D08B0102D58AB18A040FD40E
:10163000026852060CD589020AD403F09DF9E8B37A
:10164000E06D40F01000E065206E40F00100206683
:101650002046FFF79DFB21686020086030060BD50F
:10166000280609D5E06D40F48030E065204600F0A2
:1016700067F9216880200860F0050CD5E8050AD5D7
:10168000E06D40F40030E0652046FFF7A5FC2168DE
:101690004FF480700860B0050CD5A8050AD5E06D40
:1016A00040F48020E0652046FFF797FC21684FF466
:1016B00000700860F0062ED5E80600E008E02AD5A4
:1016C000E06BD0B1AFB1DBF8080000F4604013E08C
:1016D0002068416821F060014160E06D20F4805095
:1016E000E065E06DC005B3D4E06D40F00100E06559
:1016F000AEE72068C068C00750B1E06D40F480607C
:10170000E065206E40F0020020662046FFF7E6FE0E
:10171000216810200860700512D5680510D5E06DAD
:1017200040F48040E065206E40F0080020662168AB
:101730004FF4806008602046BDE8F05FFFF742BBD1
:10174000BDE8F09F0003005000010050F8B54FF0D5
:10175000000504002E46009502D0E06D10B107E0B0
:101760000120F8BD204600F0EDF8266684F85860A8
:1017700020688168C1F3407119B18168684A1140DD
:10178000816020688168C1F3007189B98168654A08
:10179000114041F080518160634864490068B0FBAA
:1017A000F1F04000801C00E0401E00900028FBD1BA
:1017B00020688168C1F3007141B9E16D41F0100109
:1017C000E165216E41F001012166012503F0DCF89D
:1017D000E16DC90600D430B1E06D40F01000E06565
:1017E00001252846F8BDE06D20F4807040F002002D
:1017F000E0652068806810F0010F11D14FF0A04023
:1018000080684B4900F00100896801F0010108433C
:1018100006D148486168826822F47C120A438260DB
:10182000E168E06B627F0843A16841EA4231084306
:1018300094F8241040EA0140012904D1218D3E4A48
:1018400002EB41410843E16A29B101F47871226B4E
:10185000014342EA01002268D168384B1940014334
:10186000D16020680169626B21F040611143016120
:10187000206803F081F870BB207F94F83810800353
:1018800040EA41022168C86844F2020398431043C9
:10189000C86020690028206801690AD041F48031BD
:1018A0000161206850F8C01F22696FF30D011143D8
:1018B00007E021F480310161206850F8C01F6FF308
:1018C0000D01016094F8400001280CD020680169E6
:1018D00021F001010161606901282068016B21F09C
:1018E0000F0111D013E0D4E911010843D4E9131218
:1018F0001143084321680A6940F2FC739A4310437C
:1019000040F001000861E6E7226A521E11430163BC
:10191000E06D20F0020040F00100E06561E70000AA
:10192000C0FFFF5FC0FFFF7F18000020400D0300D5
:1019300000010050000300500000FEFF0740F0FFD0
:10194000704700002DE9F04F97B00646142111A80A
:10195000FEF749FD44216846FEF745FD4FF400427D
:10196000316800259003554F554C4FF003084FF058
:1019700080094FF4807A4FF4806BB1F1A04F10D002
:10198000504B99427ED100920F90684601F012FBB5
:1019900008B1FEF723FF3868401C3860012852D098
:1019A00059E000920F90684601F004FB08B1FEF781
:1019B00015FF3868401C3860012807D1E06C40F4FE
:1019C0000050E064E06C00F400501690E06C40F0D1
:1019D0000100E064E06C00F001001690E06C40F063
:1019E0000200E064E06C11A900F0020016900820EB
:1019F000444681E831004FF0904000F0ADFB11A962
:101A000041F2020081E831002F4800F0A5FB304C84
:101A10002E4801C40520E4E802052020A4E8200E99
:101A200064E807052A4800F09DF908B1FEF7D6FEE4
:101A30007465002211461220A66200F01DFD1220DE
:101A400000F00CFD2FE0E06C40F40050E064E06C2E
:101A500000F400501690E06C40F00400E064E06C8C
:101A6000139500F0040016902720CDE9110811A964
:101A7000184800F071FB1548154C1438603401C447
:101A8000242000E017E0E4E802052020A4E8200E6E
:101A900064E807050E48603000F064F908B1FEF70D
:101AA0009DFE7465A66200221146122000F0E4FC3F
:101AB000122000F0D3FC17B0BDE8F08F0800002022
:101AC00000100240000100500004004844000240A1
:101AD00078020020000800482DE9F041044634480F
:101AE00017468846806800F01F05206802F04CFF0A
:101AF00000285AD194F85800012856D0012084F8C3
:101B00005800002625B1052D02D0092D00D003E094
:101B10002046FEF767FD18B184F85860BDE8F081F3
:101B2000E06D40F60161884340F48070E065214932
:101B30002068884202D14FF0A04100E00146814276
:101B400000D01DB9E06D20F48010E065E06DC004A8
:101B500004D5206E20F00600206600E02666616D48
:101B60001548C862616D15480863616D1448486383
:101B700021681C20086084F858602068416841F0A2
:101B8000100141602068C16841F00101C160216815
:101B90003B4642464031606D00F044F921688A6856
:101BA000084B1A40121D8A60B8E70220B6E7000011
:101BB0000003005000010050E90400086B05000814
:101BC00051050008C0FFFF7F10B590F825300021B7
:101BD0000122022B03D00421C163012122E003680A
:101BE0001C6824F00E041C60836C1C6824F4807450
:101BF0001C6003681C6824F001041C6090F84430E9
:101C0000046C03F01F0302FA03F36360D0E913349A
:101C10005C60436D33B11C6824F480741C60D0E9AF
:101C200016345C6080F82520002280F824200846C5
:101C300010BD70B590F82520002401212346022A0A
:101C400007D00422C26380F8251080F824300124D4
:101C500029E00268156825F00E0515600268156810
:101C600025F001051560826C156825F480751560F6
:101C700090F84420056C02F01F0201FA02F26A603B
:101C8000D0E913255560426D32B1156825F4807591
:101C90001560D0E91625556080F8251080F82430AD
:101CA000816B01B18847204670BDF0B4016C0C68AF
:101CB00001680D6890F8442002F01F06042202FA21
:101CC00006F3234211D06B070FD50B689B0603D494
:101CD0000B6823F004030B6090F8441001F01F011F
:101CE0008A40016C4A60016B1DE0022303FA06F78B
:101CF00027424FF0000C4FF0010218D0AF0716D565
:101D00000C68A40605D40C6824F00A040C6080F862
:101D1000252090F8441001F01F018B40016C4B60AE
:101D200080F824C0C16A00291AD0F0BC08470823F3
:101D3000B340234214D02B0712D50B6823F00E03B7
:101D40000B6090F84410036C01F01F0102FA01F1DE
:101D50005960C26380F8252080F824C0416BE2E717
:101D6000F0BC704770B504000CD02B4A21681420D9
:101D7000914209D2294A0A44B2FBF0F08000606423
:101D800027480AE0012070BD234A52420A44B2FBB0
:101D9000F0F080006064204808382064022084F855
:101DA00025000A6847F6F0708243D4E9020318431D
:101DB000D4E904352B431843A3691843E369184356
:101DC000236A1843104308602046FEF7B5FCA0685C
:101DD0000025B0F5804F00D16560A16C20790860C6
:101DE000D4E9130141606068401E032808D82046EA
:101DF000FEF7C2FC606D0560D4E91601416002E0A7
:101E00006565A565E565E563012084F8250084F82E
:101E10002450002070BD000008040240F8FFFDBF00
:101E20000000024070B5044690F824000025012807
:101E30000CD0012084F8240094F825600020012EA5
:101E400006D084F824000225284670BD022070BD0B
:101E5000022684F82560E0632068066826F0010603
:101E600006602046FEF79AFC206B00282068016877
:101E700002D041F00E0106E021F00401016020686B
:101E8000016841F00A010160A06C0168C90303D533
:101E9000016841F480710160606D18B1016841F41E
:101EA000807101602068016841F001010160CBE7A9
:101EB00070B5044600F07AFA0546601C02D004486A
:101EC0004068044400F072FA401BA042FAD370BD8F
:101ED0000C0000202DE9F041040006D0DFF8E88175
:101EE00094F85C00002518B107E00120BDE8F081FE
:101EF00084F85D50204600F0EFF82068816921F0F9
:101F00001001816100F052FA0646032705E000BF88
:101F100000F04CFA801B0A2811D82068806900075D
:101F2000F6D42068816941F00101816100F03EFA38
:101F300006460BE000F03AFA801B0A2806D9206E0C
:101F400040F00100206684F85C70CEE7206880696C
:101F5000C007EFD02068816941F0020181612168EA
:101F6000414502D1594960680860207C01282068F9
:101F7000816937D041F040018161607C012820688F
:101F8000816932D021F480418161A07C01282068E0
:101F900081692DD041F48051816120688169A268F6
:101FA00021F44071114381612068816921F0A4010D
:101FB00081612068016921F010010161E068012858
:101FC00019D010B302281BD02068816941F080012C
:101FD00081612068016941F010010161E068032816
:101FE0000ED012E021F04001C6E741F48041CBE77A
:101FF00021F48051D0E72068816941F0040103E0B9
:102000002068816941F020018161207EE2694006FB
:102010006FF0FF0101EB0222A0F100701043226A71
:10202000A38A521E10430A0202EB0343184323689B
:10203000D861A068B0F5407F10D1D4E90A0301EB64
:102040000321401E0843216B131303EB01110843C6
:10205000A18C02EB014108432168C860206850F858
:10206000C01FE26B1143016019482064216851F8D8
:10207000802FA38E22F4F81242EA03420A60144928
:1020800070316164216851F8802F94F8383022F063
:10209000706242EA03620A600D49B031A1640D49E1
:1020A000E1640C49D83121650A49F031616500F5D8
:1020B000547120C08842FCD3A5652566012084F8B0
:1020C0005C00002012E70000006400400065004052
:1020D00000A4004088A5004010B598B00446142123
:1020E00011A8FEF780F944216846FEF77CF91749EC
:1020F0002068884228D18014009000030C90684624
:1021000000F058FF08B1FEF769FB1148816D41F0FE
:1021100000718165816D01F000711691C16C41F013
:102120000201C164C06C11A900F0020016904FF4C6
:1021300040701190022012900020139014900920FA
:102140001590044800F008F818B010BD0064004075
:1021500000100240000400482DE9F04FDFF8209203
:10216000002301260324A9F1040B85B00F2709F1F0
:10217000040AABF1040EFAE006FA03F52A407CD01B
:1021800091F804C00CF0030CBCF1010F02D0BCF1BB
:10219000020F26D1D0F808C0CDF800C04FEA430C9A
:1021A00004FA0CF8CDF810C0DDF800C02CEA080CD9
:1021B000CDF800C0D1F80C80DDF810C008FA0CF89A
:1021C000DDF800C048EA0C08C0F80880D0F804C068
:1021D0002CEA050C0D79C5F300159D4045EA0C0568
:1021E00045600D79ED43AD070ED0C5684FEA430851
:1021F00004FA08FC25EA0C05D1F808C00CFA08FC22
:102200004CEA050CC0F80CC00D7905F00305022D51
:1022100016D1DD0800EB850CCDF808C0DCF8208075
:102220005D074FEAD56C07FA0CF528EA05080D6939
:1022300005FA0CF5DDF808C045EA0805CCF8205091
:1022400005684FEA430CCDF808C004FA0CFC25EAF7
:102250000C0591F804C00CF00308DDF808C008FA7A
:102260000CF848EA0508C0F800804D6815F4403FB6
:102270007CD0444DD5F860C000E077E04CF0010C14
:10228000C5F860C02D6E23F0030C05F00105009524
:102290003D4D65440295AD684FEA837C4FEA1C785A
:1022A00007FA08FC25EA0C05B0F1904F06D0DFF8DC
:1022B000DCC0604505D14FF0010C20E04FF0000C70
:1022C0001DE0DFF8CCC0604502D14FF0020C16E0F3
:1022D000DFF8C0C0604502D14FF0030C0FE0DFF81B
:1022E000B8C0604502D14FF0040C08E0DFF8ACC084
:1022F000604502D14FF0050C01E04FF0060C0CFADE
:1023000008FC4CEA050C029DC5F808C0D9F800503D
:10231000CC46D1F8048095435FEAC82800D5154320
:10232000CCF80050DAF80050D446D1F80480954338
:102330005FEA882800D51543CCF80050DBF8005040
:10234000DC46D1F8048095435FEA883800D5154310
:10235000CCF80050DEF80050F446D1F804809543E4
:102360005FEAC83800D51543CCF800505B1C0A68FA
:1023700032FA03F57FF400AF05B0BDE8F08F00003E
:102380000804014000100240000001400004004821
:1023900000080048000C00480010004800140048E5
:1023A0000AB181617047816270470000014880680E
:1023B000704700000C000020024881684268114408
:1023C000816070470C00002010B50024032000F04D
:1023D00073F80F2000F008F808B1012401E000F0C4
:1023E00025F8204610BD000070B50E4E05460024AD
:1023F000706898B14FF47A71B1FBF0F00A4909683E
:10240000B1FBF0F001F02EFB40B9102D06D20022F6
:102410002946501E00F030F8356000E001242046C7
:1024200070BD00000C000020180000200A4882B097
:10243000016E41F001010166016E01F001010091A0
:10244000816D41F080518165806D00F08050009079
:1024500002B000F0A7BD000000100240002809DB18
:1024600000F01F02012191404009800000F1E020AE
:10247000C0F8001170470000F0B40E4B1B680C460A
:10248000C3F30223C3F10705042D00D90425191D48
:10249000072901D2002300E0DB1E012606FA05F120
:1024A000491E214099409E40761E16403143F0BCA3
:1024B00005F04BB80CED00E0064900F00702086893
:1024C0004FF6FF03184040EA0220034A1043086019
:1024D000704700000CED00E00000FA0501220168E1
:1024E000C0F8D022002280F8C82231F8540F40F002
:1024F00001000880088840F00200088010467047FC
:1025000070B50F4D044669B101290AD1D4F8D8023B
:1025100004F06DF9607A002803D0286840F00600C6
:10252000286070BD607A28B102F080FF286820F032
:1025300006002860D4F8D802BDE8704004F0EFB877
:1025400010ED00E010B50C0607D501F0070101EB16
:10255000810100EBC100103005E001EB810100EBCF
:10256000C10000F5A87099B232B101220273018155
:10257000190C4181002010BD00220273C180F9E7CF
:1025800001EB810200EBC202D0F8D802526A03F0DC
:10259000A4BF01EB810200EBC202D0F8D802D2F84E
:1025A000642103F0EEBF70B504460B0601F007008E
:1025B00000EB800104EBC1014FF001024FF0000578
:1025C00002D54A74103103E081F8515101F5A87128
:1025D000087094F89002012808D084F890222068AE
:1025E00004F0B7FC84F89052002070BD022070BD4A
:1025F00070B5044601F00F002279904201D9012004
:1026000070BD0B0601F0070000EB800104EBC10177
:102610004FF001024FF0000502D54A74103103E07B
:1026200081F8515101F5A8718D70087094F89002ED
:10263000012808D084F89022206804F029FD84F84D
:102640009052002070BD022070BD2DE9F047046853
:102650005FEA42480B788D69B4F850804FF0000C67
:102660004BF68F7748F2800648F68F7948F2C00A19
:10267000444428D540F2024808EBC30834F8084027
:10268000C4F30904A54203D32D1B8D6102D00BE0D6
:10269000C1F818C0D0F800C03CF823503D4085F484
:1026A000005535432CF82350520609D50B780568A0
:1026B00035F8232002EA090242EA0A0225F823201B
:1026C00074B30A8927E040F2064808EBC30834F8DF
:1026D0000840C4F30904A54203D32D1B8D6102D029
:1026E0000BE0C1F818C0D0F800C03CF823503D40C2
:1026F00085F4005535432CF82350520609D40D7843
:10270000036833F8252002EA090242EA0A0223F8A4
:1027100025202CB14A8949690068234604F0D3FE7C
:102720002046BDE8F0872DE9F05F054600680C46BD
:102730005FEA42681646D1F818C02278B0F8508097
:1027400048F6BF7A48F2800B48F68F774CF2800942
:102750004FF6FF734FF4004E4FF0000140447DD51B
:1027600040F2024808EBC20830F80800C0F3090044
:10277000844514D9BCEB000CC4F818C010D0760402
:1027800008D5D5F800C03CF822603E4046EA09066C
:102790002CF8226094F82420012A60D076E1A1610F
:1027A000607810B1012813D01AE02868B0F85030D2
:1027B000184400EBC200B0F80224C2F30902A0F8EA
:1027C0000224B0F8022442F40042A0F8022407E0F8
:1027D0002868B0F85030184400EBC200A0F802148A
:1027E0006278286812B1012A11D018E0B0F85010B0
:1027F0000844217800EBC100B0F80614C1F30901C8
:10280000A0F80614B0F8061441F4004105E0B0F851
:1028100050201044227800EBC200A0F80614E078A3
:1028200002280BD12278296831F8220000EA0A0038
:1028300080F0200040EA0B0021F822002178284691
:10284000FFF79EFE700408D521782A6832F821002F
:10285000384040EA090022F82100C3E04DE06269F7
:1028600002446261E2690244E2612669226AB2427C
:1028700002D33046111A03E084F824100AB110463E
:102880002162617811B101292BD033E02968B1F8B8
:1028900050201144227801EBC201B1F80224C2F3A6
:1028A0000902A1F8022401F2024158B13E280ED8D3
:1028B0004208C60700D0521C0E8803EA8222164343
:1028C0000E8017E00A8842F400420A8012E04209B2
:1028D000C30600D1521E0B884EEA822213430B809E
:1028E00008E02968B1F850201144227801EBC201B8
:1028F000A1F8020483B22289C4E040F2064808EB42
:10290000C20830F80800C0F30900844514D3BCEBBA
:10291000000CC4F818C010D0760408D4D5F800C054
:102920003CF822603E4046EA09062CF8226094F802
:102930002420012A59D0A9E0A161607810B10128B2
:1029400013D01AE02868B0F85030184400EBC200E9
:10295000B0F80224C2F30902A0F80224B0F802245D
:1029600042F40042A0F8022407E02868B0F8503092
:10297000184400EBC200A0F802146278286812B173
:10298000012A11D018E0B0F850100844217800EB6B
:10299000C100B0F80614C1F30901A0F80614B0F89C
:1029A000061441F4004105E0B0F8502010442278AC
:1029B00000EBC200A0F80614E07802280BD12178C1
:1029C0002A6832F8210000EA0A0080F0200040EA7C
:1029D0000B0022F8210021782846FFF7D1FD700472
:1029E0007FF532AF0020BDE8F09F6269024462616A
:1029F000E2690244E2612669226AB24203D33046A8
:102A0000111A216204E00AB11046216284F82410F0
:102A10006278296812B1012A2AD031E0B1F8502039
:102A20001144227801EBC201B1F80624C2F3090275
:102A3000A1F8062401F2064158B13E280ED84208FA
:102A4000C60700D0521C0E8803EA822216430E806D
:102A500016E00A8842F400420A8011E04209C306E7
:102A600000D1521E0B884EEA822213430B8007E0EE
:102A7000B1F850201144227801EBC201A1F80604FC
:102A8000628983B26169286804F038FD2278296878
:102A900031F8220000EA0A0080F0300040EA0B0022
:102AA00021F822009EE701F0070101EB810100EB14
:102AB000C100D0F86C0170472DE9F04104460F06C3
:102AC00001F0070000EB800104EBC1014FF00106AB
:102AD0004FF0000502D54E74103103E081F85151DA
:102AE00001F5A871022B0870C2F30A000861CB70CF
:102AF00000D10D7194F89002012809D084F89062F9
:102B0000206804F071F8284684F89052BDE8F081FE
:102B10000220FBE710B501F0070404EB840100EB91
:102B2000C101C1E959230022C1F86C2181F851216A
:102B300081F85041006801F5A87104F0FBFA00200B
:102B400010BD70B5044601F007002279904201D90A
:102B5000012070BD0B064FF000054FF0010206D5B5
:102B600000EB800104EBC1014A74103107E001EB76
:102B7000810104EBC10181F8515101F5A8718A70FE
:102B8000087094F89002012808D084F890222068F8
:102B900004F0B6FA84F89052002070BD022070BD97
:102BA00010B501F0070404EB840100EBC101C1E999
:102BB0000923012281F834200B630023CB624A747D
:102BC00001F8104F006804F0B5FA002010BD10B5F0
:102BD0000446006804F074FC010404D52046BDE8F6
:102BE000104002F079BA41050ED5206830F8441F34
:102BF00021F480610180204600F008F92046BDE8FC
:102C00001040002100F02EB9410405D5206830F8AD
:102C1000441F21F480417DE0810405D5206830F80F
:102C2000441F21F4005175E0C1041FD5206830F81D
:102C3000401F21F004010180206830F8401F21F07E
:102C40000801018094F8C802012806D1002084F808
:102C5000C80201462046FFF753FC204600F0EAF880
:102C6000206830F8441F21F4805153E0010512D54B
:102C7000206830F8401F41F008010180206830F8DA
:102C8000441F21F400610180206830F8401F41F0AA
:102C9000040101800AE0010629D5206830F8441FAC
:102CA00021F08001018094F8C80218B1204600F09C
:102CB00009F910BD206830F8401F41F0040101807F
:102CC000206830F8401F41F008010180012084F89D
:102CD000C8022068B0F854003C2101EA9000C4F812
:102CE000CC022046BDE810400121FFF709BC810558
:102CF00009D5206830F8441F21F400710180204676
:102D000000F0ACF810BDC005FCD5206830F8441FB9
:102D100021F48071018010BD70B5040004D094F8D6
:102D20009102002510B106E0012070BD84F8905298
:102D3000204600F03FF8032084F89102206804F058
:102D40009FF9002001260BE000EB800104EBC1019C
:102D50004E740874CD740D624D62401CC0B28D6219
:102D600021798142F0D8002012E000BF00EB800101
:102D700004EBC10181F8515181F8500181F85351A0
:102D8000C1F86051C1F86451401CC0B2C1F868512B
:102D900021798142EAD894E8070004F068F92573A4
:102DA00084F89162A07A012802D12046FFF796FBB1
:102DB000002070BD10B592B0044644216846FDF76E
:102DC00012FB1049206888421AD14014009000205C
:102DD0000D90684600F0EEF808B1FDF7FFFC0A48D8
:102DE000816D41F400018165806D002200F40000D6
:102DF000119003211420FFF73FFB1420FFF72EFB57
:102E000012B010BD005C00400010024070B50446D6
:102E100040790125022801D0FDF7E0FC2946D4F8CD
:102E2000D80203F096FCD4F8D802BDE8704003F055
:102E300049BC000010B50446407A30B1064801682C
:102E400021F00601016002F0F1FAD4F8D802BDE8E1
:102E5000104003F064BC000010ED00E0D0F8D80290
:102E600003F067BC10B5044690F8900201280AD020
:102E7000012084F890022173206804F038FB0020C0
:102E800084F8900210BD022010BDD0F8D82200F5C1
:102E90002671104603F069BC10B5044690F8900204
:102EA00001280CD0012084F89002206804F0F9FA7F
:102EB000206804F0D5F8002084F8900210BD0220AC
:102EC00010BD000010B50446D0F8D80203F08FFC06
:102ED000607A002804D00348016841F006010160CF
:102EE00010BD000010ED00E02B492C4B0A68322188
:102EF0004A432B4940B1B0F5007F086829D020F43F
:102F0000C06040F480602CE00868C0F341200228D3
:102F100004D051F8800F20F4807022E0D1F88000B6
:102F200020F48070C1F88000086820F4C06040F48C
:102F300000700860B2FBF3F0401C00E0401E4A69DC
:102F4000520501D50028F9D1486940050AD503206A
:102F50007047C0F34120022806D051F8800F40F49A
:102F60008070086000207047D1F8800040F48070C5
:102F7000C1F88000086820F4C06040F40070086068
:102F8000B2FBF3F0401C00E0401E4A695205DBD55D
:102F90000028F9D1D8E700001800002040420F00B7
:102FA000007000400248816841F4804181607047B0
:102FB000007000402DE9F8430446006800269D4D4E
:102FC00000035ED5A86D0027C00008D4A86D40F0AE
:102FD0008050A865A86D012700F080500090DFF8B0
:102FE0005892D9F8001041F48071C9F80010FFF729
:102FF000DDF9804606E000BFFFF7D8F9A0EB080036
:1030000002282BD8D9F80000C005F5D5D5F89000D6
:1030100010F4407014D0216C814211D0D5F890008A
:10302000D5F8901020F4407041F48031C5F890102C
:10303000D5F8901021F48031C5F89010C5F89000B3
:10304000C00711D0FFF7B2F9804641F2883907E096
:10305000FFF7ACF9A0EB0801494501D903260BE0C5
:10306000D5F890008007F3D5D5F89000216C20F4B6
:1030700040700843C5F890001FB1A86D20F0805043
:10308000A8652078C00707D0D5F88800616820F0CF
:1030900003000843C5F888002078800707D5D5F8D5
:1030A0008800A16820F00C000843C5F8880020784B
:1030B000400707D5D5F88800E16820F030000843C4
:1030C000C5F888002078000707D5D5F88800216961
:1030D00020F0C0000843C5F888002078800607D596
:1030E000D5F88800616920F440600843C5F888007D
:1030F0002078400607D5D5F88800A16920F4405013
:103100000843C5F888002078000607D5D5F8880060
:10311000E16920F440400843C5F888002088C005D4
:1031200007D5D5F88800216A20F440300843C5F857
:1031300088002088800507D5D5F88800616A20F4CA
:1031400040200843C5F88800208840050FD5D5F8F1
:103150008800A16A20F440100843C5F88800A06ADE
:10316000B0F5801F03D1E86840F48010E860208843
:1031700000050FD5D5F88800E16A20F44000084327
:10318000C5F88800E06AB0F5800F03D1E86840F424
:103190008010E8602088C0040FD5D5F88800216B26
:1031A00020F040700843C5F88800206BB0F1807FA4
:1031B00003D1E86840F48010E86020884FF0006197
:1031C00080040ED5D5F88800626B20F04060104373
:1031D000C5F88800606B884203D1E86840F480102D
:1031E000E860208840040ED5D5F88800A26B20F056
:1031F00040601043C5F88800A06B884203D1E8689E
:1032000040F48010E860208800040FD5D5F88800CD
:10321000E16B20F040500843C5F88800E06BB0F146
:10322000805F03D1E86840F48030E8603046BDE854
:10323000F883000000100240007000402DE9F047C4
:103240000E4605004FF0000725D0DFF8AC81D8F816
:10325000000000F00F00B0420CD2D8F8001021F0AE
:103260000F013143C8F80010D8F8000000F00F003B
:10327000B04210D12968614CC80741F2883A5AD04F
:103280006868DFF87C91032808D0022820682DD0D8
:10329000400500282CDB0120BDE8F0872068800174
:1032A000F9D5E06800F00302E068C0F30310401CA9
:1032B000032A19D0534A00BFB2FBF0F0E268C2F310
:1032C00006225043E268C2F34162521C5200B0FB36
:1032D000F2F0484517D9A06810F0F00F0CD088071D
:1032E00011D5A86840B10EE0474AE5E78003D0E772
:1032F00000F0B6F8484506D9A06820F0F00040F08C
:103300008000A0608027A068696820F0030008435F
:10331000A060FFF74BF8814606E000BFFFF746F8D4
:10332000A0EB090151453AD8A068696800F00C008B
:10333000B0EB810FF2D12868810714D5400703D57F
:10334000A06840F4E060A0602878000705D5A06878
:1033500020F4605040F4E060A060A068A96820F00C
:10336000F000084304E0802F03D1A06820F0F000B3
:10337000A060D8F80010404601F00F01B14216D904
:10338000016821F00F0131430160FFF70FF8074694
:1033900007E000BFFFF70AF8C11B514501D9032020
:1033A0007AE7D8F8000000F00F00B042F2D1287898
:1033B000400705D5A068E96820F4E0600843A060F4
:1033C0002878000706D5A068296920F4605040EAF3
:1033D000C100A06000F044F8A1680C4AC1F30311D9
:1033E000515C01F01F01C8400949086009480068A4
:1033F000BDE8F047FEF7F8BF002002400010024091
:1034000000B4C4040024F40000127A0082A2000870
:10341000180000200C000020054806490068896853
:10342000054AC1F30221515C01F01F01C8407047F9
:10343000180000200010024092A20008054806492A
:1034400000688968054AC1F3C221515C01F01F017F
:10345000C8407047180000200010024092A20008E7
:10346000184910B58868C0F381021748012A0BD0AB
:103470008A684310C2F38102022A06D08A68C2F326
:103480008102032A03D0002010BD184610BDCA686F
:1034900002F00304CA68C2F30312521C032C02D0C8
:1034A000B0FBF2F001E0B3FBF2F0CA68C968C2F306
:1034B00006225043C1F34161491C4900B0FBF1F0C1
:1034C00010BD0000001002400024F4002DE9F84374
:1034D00004007AD02078F84DC00747D0A868E96882
:1034E00000F00C0001F003010C2802D0082817D0CE
:1034F00001E0032914D06068B0F5803F17D0B0F523
:10350000A02F286817D020F480302860286820F485
:10351000802028606068E0B1FEF748FF064614E0AE
:103520002868800322D560680028D2D01EE0286871
:1035300040F48030EDE740F480202860F7E700BFDA
:10354000FEF734FF801B642870D828688003F7D505
:103550000CE0FEF72BFF064605E000BFFEF726FF56
:10356000801B6428F0D828688003F7D4207880076F
:103570004CD5A868E96800F00C0001F003010C28A4
:1035800002D004280DD001E002290AD0E06800280A
:1035900028682BD040F480702860FEF707FF0646AD
:1035A00019E02868400502D5E068002891D06868D5
:1035B000217C20F0FE4040EA01606860BF4800685E
:1035C000FEF712FF002800D120E072E1FEF7EEFEC8
:1035D000801B0228B8D828684005F7D56868217C88
:1035E00020F0FE4040EA016068600FE020F4807047
:1035F0002860FEF7DBFE064605E000BFFEF7D6FEBC
:10360000801B0228A0D828684005F7D4207800073E
:1036100029D560690028D5F8940013D040F0010046
:10362000C5F89400FEF7C2FE064606E090E000BF33
:10363000FEF7BCFE801B022886D8D5F894008007D0
:10364000F6D510E020F00100C5F89400FEF7AEFEBC
:10365000064604E0FEF7AAFE801B022878D8D5F8BB
:1036600094008007F6D42078400761D5A86D002625
:10367000C00008D4A86D40F08050A865A86D012650
:1036800000F0805000908E480168C90511D401688F
:10369000804641F480710160FEF788FE074604E031
:1036A000FEF784FEC01B022852D8D8F80000C005DF
:1036B000F6D5A068012815D00528D5F8900016D0B9
:1036C00020F00100C5F89000D5F8900020F004002B
:1036D000C5F89000A06841F28838B8B1FEF766FEE0
:1036E00007460EE0D5F8900040F00100F0E740F00A
:1036F0000400C5F89000F5E7FEF758FEC11B4145F0
:1037000026D8D5F890008007F6D50CE0FEF74EFEDF
:10371000074604E0FEF74AFEC11B414518D8D5F81C
:1037200090008007F6D41EB1A86D20F08050A865E7
:103730002078800629D5A0690028D5F8980013D0F4
:1037400040F00100C5F89800FEF730FE064606E09E
:1037500075E000BFFEF72AFE801B02286FD8D5F85F
:1037600098008007F6D510E020F00100C5F8980019
:10377000FEF71CFE064604E0FEF718FE801B02283A
:103780005DD8D5F898008007F6D4E069F0B3A96851
:10379000C1F3810103295DD00228286820F08070E0
:1037A000286003D0FEF702FE04464BE0FEF7FEFD64
:1037B000064604E0FEF7FAFD801B02283FD8286881
:1037C0008001F7D4F4E908016FF00F0202EB011158
:1037D0000843218A5204490802EB4151A26841EA98
:1037E00002210843217D4FF07E42490802EB4161EE
:1037F0000843217B40EAC160E968324A114008432E
:10380000E860286840F08070286000E05EE0E868CA
:1038100040F08070E860FEF7C9FD044605E000BF97
:10382000FEF7C4FD001B022809D828688001F7D5DF
:103830004CE000BFFEF7BAFD001B022802D90320AE
:10384000BDE8F88328688001F4D4E8681E49084080
:10385000E8603BE00128F3D0E868226A00F0030149
:10386000914226D1616A00F0F002090110399142BB
:103870001FD1A26A00F4FE41B1EB022F19D194F8D6
:103880002C2000F07841B1EBC26F12D1218E00F4F0
:10389000C00249084905A1F50011914209D194F8E7
:1038A000341000F0C06049084906A1F1007181425E
:1038B0000CD00120C4E70000001002400C000020E2
:1038C000007000400C809F01FCFFEEFE0020B7E777
:1038D00070B5040009D0606A002540B125616561BA
:1038E000A56294F85D0040B10CE0012070BD6068F5
:1038F000B0F5827FF4D0E561F2E784F85C502046B1
:1039000000F05CF8022084F85D002068016821F076
:1039100040010160E1684FF4E062914201D900206A
:1039200001E04FF48050B1F5706F02D0914200D0A9
:10393000A562A188228901F4827102F40442114334
:10394000227C02F002021143227D02F001021143A7
:10395000228B02F400721143227F02F038021143DD
:1039600094F8202002F080021143228D02F40052CC
:10397000114322681160A169042202EA114194F8FE
:10398000242000F4805002F01002114394F83420F7
:1039900002F008021143A28902F47062114301434C
:1039A000206841602068C16921F40061C161256619
:1039B000012084F85D00002070BD000010B586B0C5
:1039C000044614216846FCF70EFD2368204C0021B4
:1039D00020480222A34219D1036E43F480530366A8
:1039E000036E03F480530593C36C43F00203C36476
:1039F000C06C00F00200059038200090CDE9012154
:103A00000520CDE90310694613481CE0134CA3427E
:103A10001BD1836D43F400438365836D03F400433E
:103A20000593C36C43F00403C364C06C00F004004E
:103A300005904FF4E0500090CDE901210620CDE93A
:103A4000031069460648FEF787FB06B010BD00006C
:103A5000003001400010024000040048003C0040DB
:103A60000008004810B5401EB0F1807F01D301204E
:103A700010BD4FF0E02460610F21601703F065FD79
:103A80000020A06107202061002010BD7047704712
:103A90007047000030B590F83C20012A42D0012246
:103AA00080F83C20CA688B6822F440721A434B6845
:103AB00022F480621A430B6822F400621A430B69F5
:103AC00022F480521A434B6922F400521A430B6BC2
:103AD00022F480421A430B8B22F4702242EA034202
:103AE000CB6922F080521A430F4D03680024AB4289
:103AF00002D00E4DAB4210D10D8D22F4700242EA7D
:103B000005520D6A22F080722A434D6A22F000723B
:103B10002A43C96A22F000520A435A6480F83C40A2
:103B2000002030BD022030BD002C01400034014097
:103B30007047704770470000F0B590F83C20012AAC
:103B40003AD0012580F83C50022280F83D200368DD
:103B50005A689C68194E1A4FB34201D0BB4204D137
:103B600022F4700C4A6842EA0C02DFF858C002EAFC
:103B70000C02D1F800C04CEA020CC3F804C0026881
:103B8000B2420DD0B2F1804F0AD00F4B9A4207D00B
:103B90000E4B9A4204D0BA4202D00D4B9A4204D145
:103BA000896824F080031943916080F83D5000211A
:103BB00080F83C100846F0BD0220F0BD002C01400A
:103BC000003401408FFFFFFD00040040000800406A
:103BD0000040014010B50446022249B104290ED02C
:103BE000082913D094F84700012816D0012010BDF1
:103BF00094F844000128F9D184F844200FE094F8A7
:103C000045000128F2D184F8452008E094F84600E8
:103C10000128EBD184F8462001E084F847200422F3
:103C2000206801F0B8FC2068416C41F40041416417
:103C30001049206888420ED0B0F1804F0BD00E4959
:103C4000884208D00D49884205D00D49884202D0EB
:103C50000C49884207D181680B4A1140062906D0D9
:103C6000B1F5803F03D0016841F0010101600020FF
:103C700010BD0000002C014000040040000800407E
:103C8000003401400040014007000100704710B5BA
:103C9000040003D094F83D0010B107E0012010BDEE
:103CA000002084F83C00204600F022F8022084F82E
:103CB0003D00211D206801F003FC012084F848002C
:103CC00084F83E0084F83F0084F8400084F8410006
:103CD00084F8420084F8430084F8440084F84500E6
:103CE00084F8460084F8470084F83D00002010BDA9
:103CF00008B5154A0168154891420ED1016E41F48C
:103D000000610166006E002200F400600090012155
:103D10001920FEF7B1FB192010E00D4A914211D194
:103D2000816D41F002018165806D002200F002008A
:103D3000009002211D20FEF79FFB1D20BDE80840DA
:103D4000FEF78CBB08BD0000002C014000100240B3
:103D50000004004090F83D10012901D00120704777
:103D6000022180F83D100168CA6842F00102CA6071
:103D70000068104988420ED0B0F1804F0BD00E4938
:103D8000884208D00D49884205D00D49884202D0AA
:103D90000C49884207D181680B4A1140062906D098
:103DA000B1F5803F03D0016841F0010101600020BE
:103DB00070470000002C0140000400400008004053
:103DC00000340140004001400700010070B5044686
:103DD00090F83C000025012814D0012684F83C60AE
:103DE000022084F83D0022689068364B184020F489
:103DF0007F409060086870282ED010DC10F00F0F04
:103E000003D021E04FF0020070BD4FEA2012072AD4
:103E10001AD2DFE802F0525252524A3840002A4B7E
:103E2000C21A984249D009DCB0F5805F0DD0B0F5D8
:103E3000005F1CD0B0F1101F06D13EE0102A3CD02C
:103E4000202A3AD0502A38D0012584F83D6000203D
:103E500084F83C00284670BDCB68D1E90121206878
:103E600001F0A6FB2068816841F0770109E0CB688A
:103E7000D1E90121206801F09BFB2068816841F4B1
:103E800080418160E1E7CA684968206801F03AFD35
:103E90005021206806E0CA684968206801F043FDA7
:103EA0006021206801F08EFBCFE7CA68496820686E
:103EB00001F028FD40212068F4E722680146104601
:103EC000F0E7000088FFCEFF2000100070472DE9CA
:103ED000F04104460068C66805694FF00007A9076D
:103EE00013D5B10711D5F91E016101202077206893
:103EF00080698007204602D0FFF7E8FF04E000F069
:103F000001F9204600F0C3F92777680716D5700736
:103F100014D521686FF00400086102202077206822
:103F2000806910F4407F204602D0FFF7CFFF04E005
:103F300000F0E8F8204600F0AAF92777280715D501
:103F4000300713D521686FF008000861042020773E
:103F50002068C0698007204602D0FFF7B7FF04E061
:103F600000F0D0F8204600F092F92777E80616D541
:103F7000F00614D521686FF0100008610820207742
:103F80002068C06910F4407F204602D0FFF79EFFF2
:103F900004E000F0B7F8204600F079F92777E80749
:103FA00008D0F00706D021686FF0010008612046B4
:103FB00000F0ECF9280601D4A80408D5300606D58F
:103FC00021686FF4025008612046FFF760FDE805A4
:103FD00008D5300606D521686FF480700861204648
:103FE000FFF754FD680608D5700606D521686FF006
:103FF00040000861204600F0E5F9A80608D5B006A3
:1040000006D521686FF0200008612046FFF740FDCB
:10401000E80208D5F00206D521686FF48010086127
:104020002046FFF786FDA80208D5B00206D5216814
:104030006FF4001008612046FFF77AFD680208D58A
:10404000700206D521686FF4800008612046FFF7F2
:1040500071FD28020AD5300208D521686FF40000EE
:1040600008612046BDE8F041FFF710BEBDE8F081D1
:10407000F0B587B0044614216846FCF7B4F91E4930
:104080002068884236D11D48C16C41F00201C164EC
:10409000C16C01F002010591C16C41F00101C164E4
:1040A000C06C022500F0010005904FF4C040009064
:1040B0000024CDE901540626114FCDE90346694697
:1040C0003846FEF749F8A8030090CDE901540420D2
:1040D000CDE9034069463846FEF73EF84FF4E0600C
:1040E0000090CDE90154CDE9034669464FF0904078
:1040F000FEF732F807B0F0BD002C0140001002407E
:1041000000040048704770B5044690F83C00002653
:104110000D4601280BD0012084F83C000C2A4AD01F
:1041200007DC82B1042A20D0082A06D131E002201F
:1041300070BD102A53D0142A63D00126002084F8C1
:104140003C00304670BD206801F046FA2068816965
:1041500041F0080181612068816921F004018161D9
:10416000206881692A69114311E0206801F082FA10
:104170002068816941F4006181612068816921F4CE
:1041800080618161206881692A6941EA0221816137
:10419000D4E7206801F0B6FA2068C16941F008014F
:1041A000C1612068C16921F00401C1612068C16951
:1041B0002A69114311E0206801F0ECFA2068C16916
:1041C00041F40061C1612068C16921F48061C1616D
:1041D0002068C1692A6941EA0221C161AEE720680D
:1041E00001F020FB2068016D41F0080101652068A5
:1041F000016D21F0040101652068016D2A691143F8
:1042000011E0206801F046FB2068016D41F4006177
:1042100001652068016D21F4806101652068016DF0
:104220002A6941EA0221016588E710B5040003D03C
:1042300094F83D0010B107E0012010BD002084F883
:104240003C00204600F022F8022084F83D00211DA9
:10425000206801F035F9012084F8480084F83E0018
:1042600084F83F0084F8400084F8410084F842005C
:1042700084F8430084F8440084F8450084F846003C
:1042800084F8470084F83D00002010BD7047704757
:1042900030B50446022269B1042912D0082917D08A
:1042A0000C291CD0102921D094F84300012824D0D7
:1042B000012030BD94F83E000128F9D184F83E2059
:1042C0001DE094F83F000128F2D184F83F2016E069
:1042D00094F840000128EBD184F840200FE094F8D6
:1042E00041000128E4D184F8412008E094F842001C
:1042F0000128DDD184F8422001E084F84320012226
:10430000206801F03BF9194B20681949194A984275
:1043100009D0884207D0904205D0174DA84202D05C
:10432000164DA84203D1456C45F40045456420680C
:1043300098420CD0B0F1804F09D0114B984206D072
:10434000104B984203D0884201D0904207D1816837
:104350000D4A1140062906D0B1F5803F03D001680F
:1043600041F001010160002030BD0000002C01403F
:104370000034014000400140004401400048014039
:1043800000040040000800400700010010B500686C
:104390000949884206D1094805F05CF8BDE810409B
:1043A00005F024BC0649884204D1BDE8104003480A
:1043B00005F024B810BD0000002C0140500600207C
:1043C00000040040704790F88410012918D00121A2
:1043D00080F884102421C0F8881001680A680B68EE
:1043E00023F001030B6022F00051002242660368B3
:1043F00019602021C0F8881080F88420104670478A
:10440000022070477047704770B5044690F88400EA
:1044100001281DD0012084F884002420C4F88800DD
:1044200020680568026822F0010202602068826844
:1044300022F060620A438260204601F087FA206819
:1044400005602020C4F88800002084F8840070BD36
:10445000022070BD70B5044690F8840001281DD07C
:10446000012084F884002420C4F8880020680568AE
:10447000026822F0010202602068826822F0604235
:104480000A438260204601F061FA2068056020201E
:10449000C4F88800002084F8840070BD022070BD3C
:1044A00070477047704700002DE9F04103680446EB
:1044B000D86919689A6840F60F0528424FF0000540
:1044C0004FF002060AD187067ED501F0200702F0E0
:1044D000805C57EA0C0777D0616F42E1B64FDFF896
:1044E000DCC2174001EA0C0C57EA0C0C6CD05FEAF6
:1044F000C07C0CD05FEAC15C09D54FF0010CC3F859
:1045000020C0D4F8903043F00103C4F89030830702
:1045100009D5D30707D023681E62D4F8903043F042
:104520000403C4F8903043070AD5D30708D026689F
:1045300004233362D4F8903043F00203C4F890307F
:1045400003070CD501F020033B4308D0266808235D
:104550003362D4F8903043F00803C4F89030030578
:104560000BD54B0109D526684FF400633362D4F8AC
:10457000903043F02003C4F89030D4F89030002BF2
:104580003DD0800609D501F0200002F0805108439B
:1045900003D0616F09B120468847D4F890002168A4
:1045A0008968490602D410F0280F2AD0204601F06D
:1045B000B1FA2068806840061ED52068083050E8AF
:1045C000001F21F0400100E021E040E80012002A35
:1045D000F3D1D4F8800078B179498163D4F88000B0
:1045E000FDF727FB00280AD0D4F88000816B00E09B
:1045F0002046BDE8F04108472046FFF753FFBDE8DD
:10460000F0812046FFF74EFFC4F89050F7E7D4F84A
:104610006CC02027BCF1010F7ED15FEAC06C7BD556
:104620005FEAC16C78D51020186220688068400667
:1046300051D5D4F880100A6850680004000C3ED0B0
:10464000B4F85C3083423AD9A4F85E000868006888
:1046500080062CD4216851E8000F20F4807041E8D6
:104660000002002AF6D12068083050E8001F21F02F
:10467000010140E80012002AF5D12068083050E816
:10468000001F21F0400140E80012002AF5D1C4F8D3
:104690008C70E566216851E8000F20F0100041E8B9
:1046A0000002002AF6D1D4F88000FDF78DFA2667C3
:1046B000B4F85C00B4F85E10401A81B207E0B4F8B8
:1046C0005C1081429BD11068800698D526672046F1
:1046D000FFF798FE93E7B4F85C00B4F85E10401A58
:1046E00081B2B4F85E00002889D0002987D0226802
:1046F00052E8000F20F4907042E80003002BF6D13E
:104700002D4BDB432068083050E8002F1A4040E86A
:10471000002CBCF1000F00E00EE0F3D1C4F88C7067
:10472000E5666567206850E8002F22F0100240E837
:104730000023002BF6D1C9E7C60209D5560207D5DA
:104740004FF4801018622046BDE8F041FFF7A9BE83
:1047500003060AD501F0800302F40002134304D0DB
:10476000A16F00297FF444AF49E7420611D54A06FC
:104770000FD52046016851E8002F22F0400241E8A1
:104780000023002BF6D1C0F88870856700F0CAF8C6
:1047900035E7020206D54A0004D52046BDE8F041BF
:1047A000FFF77EBEC00195D5002993DA2046BDE80B
:1047B000F041FFF728BE00000100001020010004B6
:1047C000055B000810B5040003D0D4F8880010B1D0
:1047D00007E0012010BD002084F88400204600F08E
:1047E00027F82420C4F888002068016821F001011E
:1047F0000160A06A10B1204601F0CAF8204601F01D
:10480000B3F90128E6D02068416821F49041416065
:104810002068816821F02A0181602068016841F0E8
:10482000010101602046BDE8104001F015B900000B
:10483000F0B597B00646142111A8FBF7D4FD44212A
:104840006846FBF7D0FD3149306888425CD10420CE
:104850000024009003946846FEF7ACFB08B1FBF718
:10486000BDFF2B48816D41F480218165816D01F48C
:1048700080211691C16C41F00201C164C06C11A984
:1048800000F0020016904FF4406011900220CDE934
:1048900012040720CDE914401E48FDF75DFC1F4DB2
:1048A0001D48802728601C20C5E90104C5E903478D
:1048B0006C61AC61EC6128462C62FDF753FA08B1DB
:1048C000FBF78CFFC6F88050AE62144D144860357B
:1048D00005F1080128601D206860102081E8910022
:1048E0006C61AC61EC6128462C62FDF73BFA08B1C3
:1048F000FBF774FFF567002211462720AE62FDF733
:10490000BBFD2720FDF7AAFD17B0F0BD0048004011
:1049100000100240000400480804024090050020F6
:104920001C0002407047FEE7F0B500230A24302542
:1049300037261F4611E000BFB4EB107F02D905EB0C
:10494000107C01E006EB107C01F813C001EB430C76
:1049500000015B1C8CF80170DBB29342ECD3F0BD1C
:1049600000EB8100006E00F0F840704700EB810022
:10497000006E00F0F84070478068C0F3C0007047D8
:104980008068C0F3C00070478068C0F38000704743
:104990008068C0F380007047C06810F4406F01D099
:1049A0000020704701207047042303EAD15310B55B
:1049B00018444369C1F3045107248C40A3438A403F
:1049C0001343436110BD042303EAD15310B51844C7
:1049D0004369C1F3045107248C40A3438A40134325
:1049E000436110BD00EB8100016E21F000411143D5
:1049F0000166704700EB8100016E21F00041114318
:104A00000166704730B593B000240F9410943C2198
:104A100068461194FBF7E7FC28484FF0A0410125B8
:104A200001604FF44031C0E90114C4600821046101
:104A3000C0E9055104774477056280F82450856207
:104A400080F83850C46380F84040FCF77FFE08B11E
:104A5000FBF7C4FE0FA919480F94FCF7BFFA08B181
:104A6000FBF7BCFE164800900920CDE901047F2029
:104A700003900420CDE9040402200890A0200A90AD
:104A80008DF8245080208DF825400B908DF826401D
:104A90008DF8304069460948FBF7EEFE08B1FBF798
:104AA0009DFE40F20F10019069460448FBF7E4FEBA
:104AB000002801D0FBF792FE13B030BDA00100200A
:104AC0001000C0102DE9F04198B03C2108A8FBF778
:104AD0008AFC20216846FBF786FC3B4839490024C4
:104AE00001604FF44031C0E90114042585614FF0A5
:104AF0000108C460C0E90448047780F81D8005629D
:104B000080F82440C462046380F83880C46380F86D
:104B10004040FCF71BFE08B1FBF760FE2B4E09A9D5
:104B200009207F27089681E8A100CDE90C54842054
:104B300012908DF844404FF480708DF845401390EA
:104B4000CDF840808DF846408DF8504008A91E48A9
:104B5000FBF792FE08B1FBF741FE0620CDE90060AD
:104B60000720CDE90207CDE9045469461648FCF751
:104B7000A1FA08B1FBF732FE154800900C20CDE9F0
:104B8000010569461048FCF795FA08B1FBF726FEC7
:104B9000104800901220019069460B48FCF78AFAF1
:104BA00008B1FBF71BFE0C480090182001906946E5
:104BB0000548FCF77FFA002801D0FBF70FFE18B07C
:104BC000BDE8F081000100500C0200200008302EEA
:104BD000400020198000501D000180211D4808B5AB
:104BE000816C41F004018164816C01F00401009149
:104BF000816C41F002018164816C01F0020100913D
:104C0000816C41F001018164806C002200F00100A0
:104C1000009011460C20FDF72FFC0C20FDF71EFC28
:104C2000002211460D20FDF727FC0D20FDF716FC94
:104C3000002211460E20FDF71FFC0E20FDF70EFC92
:104C4000002211463820FDF717FCBDE80840382047
:104C5000FDF704BC00100240144810B512490022B0
:104C6000C0E900124FF44071C0E902120121017441
:104C7000417400F1140C827414233B248CE81A0054
:104C8000C0E908310E23C0E90A1301631021416312
:104C90000821C0E90E12FDF71DF9002803D0BDE878
:104CA0001040FBF79BBD10BD00640040380300209E
:104CB0002DE9F04F87B014216846FBF794FB474875
:104CC000C16C41F00401C164C16C01F004010591A3
:104CD000C16C41F02001C164C16C01F0200105915B
:104CE000C16C41F00101C164C16C01F00101059189
:104CF000C16C41F00201C164C16C01F00201059177
:104D0000C16C41F00801C164C06CDFF8D48000F0D0
:104D100008004FF400540590002221464046FDF75C
:104D20003FFB01224FF440414046FDF739FBA7000D
:104D30004FF09049002239464846FDF731FBDFF835
:104D4000A4A0002204215046FDF72AFBDFF898B00A
:104D50000022C0215846FDF723FB009401240025C2
:104D6000CDE90145694640460395FDF7F5F9A003F5
:104D7000CDE9000469464046CDE90245FDF7ECF96E
:104D8000022600970395CDE9014669464046FDF7A6
:104D9000E3F94FF47070CDE900056946029440468E
:104DA000FDF7DAF9CDE9007469464846CDE90245D8
:104DB000FDF7D2F9042003958DE85100694650466D
:104DC000FDF7CAF9C02003958DE8510069465846A1
:104DD000FDF7C2F907B0BDE8F08F000000100240F7
:104DE00000080048000C004800040048124810B5B4
:104DF000104901604FF48271416000214FF47062EC
:104E0000C0E9021202220261012242615202826161
:104E10002022C0E9072107224162C0E90A1201638A
:104E20004163FEF755FD002803D0BDE81040FBF7B5
:104E3000D5BC10BD003001409C030020124810B5C5
:104E4000104901604FF48271416000214FF4E0622B
:104E5000C0E9021202220261012242615202826111
:104E60001022C0E9072107224162C0E90A1201634A
:104E70004163FEF72DFD002803D0BDE81040FBF78D
:104E8000ADBC10BD003C00400004002010B59CB03B
:104E9000002419941A9417941894149415941C21AE
:104EA00068461694FBF79FFA342107A8FBF79BFA94
:104EB0003E483D49C0E900146021816040F69F7181
:104EC000C0E903148021C0E90541FEF7E0FE08B106
:104ED000FBF784FC4FF48050179017A93348FEF776
:104EE00075FF08B1FBF77AFC3048FFF79EF908B16F
:104EF000FBF774FC4FF44000CDE9144014A92B4893
:104F00001694FEF719FE08B1FBF768FC7020CDE996
:104F100000040294039404940594002269462348F3
:104F20000694FFF7F0F808B1FBF758FC0422694635
:104F30001E48FFF7E8F808B1FBF750FC0822694665
:104F40001A48FFF7E0F808B1FBF748FC0C22694665
:104F50001648FFF7D8F808B1FBF740FC1422694661
:104F60001248FFF7D0F808B1FBF738FC079450203F
:104F70000894CDE909404FF40050CDE90B400D9461
:104F800000030E94CDE90F401194129407A907482D
:104F90001394FEF77FFD08B1FBF720FC0348FFF7F1
:104FA00067F81CB010BD0000002C01406404002014
:104FB00010B588B00024174800940194029403941B
:104FC000049405941249069401609F21C0E90114DC
:104FD00040F2E731C0E903148461FEF758FE08B1DE
:104FE000FBF7FCFB4FF48050009069460948FEF740
:104FF000EDFE08B1FBF7F2FB049404A90548069402
:10500000FEF79AFD002801D0FBF7E8FB08B010BDC1
:1050100000040040B0040020184810B51649016093
:105020004FF4E1314160002181600C22C160C0E990
:1050300004128161C161016241628162FFF7C2FBBA
:1050400008B1FBF7CBFB00210C48FFF703FA08B1CE
:10505000FBF7C4FB00210948FFF7D6F908B1FBF7BD
:10506000BDFB0648FFF7AFF9002803D0BDE81040AC
:10507000FBF7B4BB10BD000000480040FC0400205A
:1050800010B500220F49104801F002FA08B1FBF7F1
:10509000A5FB0E490C4801F0D2FB08B1FBF79EFBC3
:1050A0000B49094801F040F808B1FBF797FB0648A7
:1050B00001F040FC002803D0BDE81040FBF78EBB98
:1050C00010BD000024000020AC0E0020680100206C
:1050D00078000020FEE7FEE72DE9F84F044640F691
:1050E0008F7A40F2064B48F60F784FF000098BE1BB
:1050F000B0F8441011F00F053AD030F825603104B3
:105100007DD530F8251001EA0A0141F0800120F830
:10511000251005EB850004EBC00797F85C0107F547
:10512000A87700286CD0F87802286AD039782268ED
:1051300032F8210048F68F73184048F2C003184334
:1051400022F821003878D4F800C03CF82010490437
:10515000BCF8501001EB0C027ED540F2024101EB8D
:10516000C000105A8005800D009076D03A89A7E0E3
:10517000C9062AD4018801EA080141F400410180EE
:10518000206804F11005B0F85010227C014440F270
:10519000024000EBC200085AC0F30900E062616AF5
:1051A0000844606200212046FDF7EAF9207B0028D0
:1051B0009DD0A86900289AD1207B40F0800120680A
:1051C000A0F84C1084F80C901EE1018804F5A87535
:1051D0000A051ED5B0F850100A1829780BEBC1004B
:1051E000105A04F52671C0F30903EB61EA882068C0
:1051F00002F069F92168088800EA0A0002E07BE011
:105200003FE04EE040F0800008802046FDF73DFE84
:10521000FAE00904D8D5018801EA0A0141F08001C9
:1052200001802068B0F850102A7808440BEBC201C6
:10523000405A83059B0DEB610DD0696959B1EA882D
:10524000206802F040F9E969686908446861002152
:105250002046FDF79EF901E02AE028E02068018859
:105260000A050DD4C1F30131032909D001884BF699
:105270008F72114081F4405148F280021143018045
:10528000C2E02068B0F850103B780A180BEBC3015D
:10529000515A8905890D009117D0FA887969009BC8
:1052A00011E0324639462046FDF7CFF900900CE078
:1052B0000BEBC000105A8005800D009005D07A8954
:1052C00003466046796902F0FEF8F96900980844DF
:1052D000F8617869009908447861B86918B139694A
:1052E0000098814204D939782046FDF752F903E04D
:1052F0003946206801F01EFF30062DD505EB8500EC
:1053000004EBC001206830F8252002EA080242F4CC
:10531000004220F82520C87C103101281DD0F0055E
:105320006ED42068B0F8502013180A7840F202407A
:1053300000EBC200185A8A69C0F30900824258D9AA
:10534000121A8A6157D04A6902444A61CA691044F4
:10535000C861206801F0EEFE56E0C1F818900A7BA3
:1053600048461AB3720622D54A7812B1012A14D0DF
:1053700041E02068B0F8502010440A7800EBC200E9
:10538000B0F80224C2F30902A0F80224B0F8022403
:1053900042F40042A0F802242DE02268B2F8503016
:1053A0001A440B7802EBC302A2F8020423E04B7804
:1053B000226813B1012B13D01DE0B2F85000104445
:1053C0000A7800EBC200B0F80624C2F30902A0F884
:1053D0000624B0F8062442F40042A0F806240AE0AD
:1053E000B2F850301A440B7802EBC302A2F806045C
:1053F00001E0C1F8189009782046FDF7C1F803E0F4
:1054000032462046FDF78FF92068B0F844100904B1
:105410003FF56EAE0020BDE8F88F70477047017809
:10542000407841EA00207047FCF7C6BF10B594B041
:1054300038216846FAF7D7FF14210EA8FAF7D3FFF0
:105440000020FDF751FD2120009001214FF4803014
:10545000019002200324CDE90610CDE9084128215E
:10546000CDE90A100421CDE90C106846FEF72EF8AC
:1054700008B172B6FEE70F20CDE90E0400201090AF
:105480001190129004210EA8FDF7D8FE002801D03B
:1054900072B6FEE714B010BD0248016841F4700115
:1054A0000160704788ED00E00148FEF710BD000084
:1054B000640400200148FEF70ABD0000B00400208B
:1054C0002DE9F0430268264B264D274E274C4FF01E
:1054D0008049984207D0484505D0A84203D0B04241
:1054E00001D0A04203D122F070074A683A43204F0E
:1054F000DFF880C0DFF8808098420DD048450BD09F
:10550000A84209D0B04207D0A04205D0B84203D08B
:10551000604501D0404503D122F44075CA682A4352
:105520004D6922F080022A4302608A68C2620A68DA
:105530008262984207D0A04205D0B84203D06045AD
:1055400001D0404501D1096901630121416101692F
:10555000C90703D0016921F001010161BDE8F083B1
:10556000002C0140000400400008004000340140CD
:1055700000400140004401400048014010B501F0E6
:105580001F030121046A99408C430462016A9A4016
:105590001143016210BD10B501F00F030421046A2C
:1055A00099408C430462016A9A401143016210BD24
:1055B00010B5846842EA032224F47F440A4322435C
:1055C000826010BD8268034B1A400A4342F0070113
:1055D000816070478FFFCFFF2DE9F043056A026AB3
:1055E00022F001020262436882691C4C25F0020528
:1055F00022400C6822F0030214438A68194E2A43A1
:10560000174D194FDFF864C0DFF86490A84207D047
:10561000B04205D0B84203D0604501D0484506D11C
:1056200022F00808CA6842EA080222F00402A842EE
:1056300007D0B04205D0B84203D0604501D04845FC
:1056400005D14D6923F440731D438B692B4343609F
:105650008461496841630262BDE8F0838FFFFEFF09
:10566000002C014000340140004001400044014052
:1056700000480140F0B5056A026A22F01002026299
:1056800042688369194C1B4E23400C6823F4407315
:1056900043EA042425F020038D6843EA0513144DE2
:1056A000A84201D0B04206D1CF6823F0800343EA7C
:1056B000071323F04003A8420AD0B04208D00E4D91
:1056C000A84205D00D4DA84202D00D4DA84207D1E9
:1056D0004D6922F4406242EA85028D6942EA850200
:1056E00042608461496881630362F0BDFF8FFFFE01
:1056F000002C0140003401400040014000440140C2
:1057000000480140F0B5056A026A22F48072026224
:105710004368C269194C1B4E22400C6822F00302F8
:10572000144325F400728D6842EA0522144DA84204
:1057300001D0B04206D1CF6822F4006242EA0722CB
:1057400022F48062A8420AD0B04208D00E4DA8428E
:1057500005D00E4DA84202D00D4DA84207D14D698B
:1057600023F4405343EA05138D6943EA051343606C
:10577000C4614968C1630262F0BD00008FFFFEFF93
:10578000002C014000340140004001400044014031
:1057900000480140F0B5056A026A22F480520262B4
:1057A0004268C369194C1B4E23400C6823F44073B4
:1057B00043EA042425F400538D6843EA0533144D6D
:1057C000A84201D0B04206D1CF6823F4004343EA97
:1057D000073323F48043A8420AD0B04208D00E4DCC
:1057E000A84205D00D4DA84202D00D4DA84207D1C8
:1057F0004D6922F4404242EA85128D6942EA8512DF
:105800004260C461496801640362F0BDFF8FFFFE1E
:10581000002C0140003401400040014000440140A0
:105820000048014030B5056A026A22F48032026203
:105830004268036D114C23400C681C4325F400336F
:105840000D8943EA05430E4DA8420BD00D4DA842E9
:1058500008D00D4DA84205D00C4DA84202D00C4DE9
:10586000A84204D14D6922F4803242EA0522426006
:10587000046549688164036230BD00008FFFFEFF4C
:10588000002C014000340140004001400044014030
:105890000048014030B5046A026A22F480120262B4
:1058A0004268036D114D24F400142B400D6843EA47
:1058B00005230D8944EA05540D4DA8420BD00D4D2A
:1058C000A84208D00C4DA84205D00C4DA84202D0E9
:1058D0000B4DA84204D14D6922F4802242EA852270
:1058E000426003654968C164046230BDFF8FFFFEFA
:1058F000002C0140003401400040014000440140C0
:105900000048014010B5036A046A24F001040462EF
:10591000846924F0F00444EA021423F00A020A43E2
:105920008461026210BD10B5036A046A24F0100499
:105930000462846923F0A00324F4704444EA023230
:1059400043EA01118261016210BD000030B5416E71
:10595000B9B1026891689268C1F342610B4B520F72
:105960009C5CE50003F10804A25CB5FBF2F2A0F830
:105970006A205A5C615CD200B2FBF1F1A0F86810B9
:1059800030BD0121A0F86A10F8E7000072A20008FB
:1059900090F82810090706D501684A68836B22F43D
:1059A00000421A434A6090F82810C90706D00168DF
:1059B0004A68C36A22F400321A434A6090F82810F9
:1059C000890706D501684A68036B22F480321A43BE
:1059D0004A6090F82810490706D501684A68436B69
:1059E00022F480221A434A6090F82810C90606D58E
:1059F00001688A68C36B22F480521A438A6090F867
:105A00002810890606D501688A68036C22F40052C2
:105A10001A438A6090F82810490611D501684A682F
:105A2000436C22F480121A434A60416CB1F5801F26
:105A300006D101684A68836C22F4C0021A434A60A6
:105A400090F82810090606D501684A68C06C22F44F
:105A5000002202434A6070472DE9F84300260446BD
:105A6000C0F89060FCF7A2FC8046206800684FF008
:105A7000200500076FF07E4713D543460022290416
:105A80002046009700F0AAF958B1216851E8000FAC
:105A900020F0800041E80002002AF6D1C4F88850C6
:105AA00021E020680068400722D5434600224FF4D9
:105AB00080012046009700F091F9C8B1216851E8B3
:105AC000000F20F4907041E80002002AF6D120680F
:105AD000083050E8001F21F0010140E80012002AC0
